:03000000022A824F
:0C2A8200787FE4F6D8FD758172022AC945
:102F5100783D25642C793D25640D0A000073637268
:102F610065656E3D25640D0A0070776D3D25640D24
:102F71000A006572726F3D25640D0A0000000000B1
:022F810000004E
:0E32AD0000007F207EEC7D10DDFEDEFCDFFAEF
:0132BB0022F0
:08332F007F3B7E5ADEFEDFFC4D
:013337002273
:10003E00E49000B6F0A3F0A3F0A3F0A3741EF0E4D6
:10004E00A3F0A3F0A3F0A3F0A3F0A3F0A3F0A3F00A
:10005E00A3121754000000009000C712175400009E
:10006E0000009000CB121754000000009000CF1239
:10007E00175400000000E49000D3F0A3F0A3F0A307
:10008E00F0A3F0A3F0A3F0C200C20178DA7C007DE9
:10009E00017BFF7A2F797DFE7F0312148878DD7C39
:1000AE00007D017BFF7A2F79807E007F03121488FA
:1000BE00C202E49000E0F0A3F0122C631232AD12F3
:1000CE002C6312321B12326012331B123249122F62
:1000DE00B57B017A0079E17528017FA0122DC91236
:1000EE00332F9000E1E064BB70197B017A0079E058
:1000FE007528017FA1122DC912332F9000E0E00464
:10010E00F0801AE49000E0F0A374BBF07B017A005B
:10011E0079E17528017FA0122F8312332F7B017A8C
:10012E000079E07528017FA1122F8312332FC3901F
:10013E00000DE0940A90000CE0940040F1E4F0A36E
:10014E00F01227E3C390005FE0941E90005EE094EF
:10015E0000500302059FE4F0A3F09000B8E0700693
:10016E0012315502058E9000B8E06401702C122CED
:10017E00639000E8E0FEA3E0FF7C007D0A121518F4
:10018E009000E8EEF0A3EFF07C007D0A12150690C9
:10019E0000E8EEF0A3EFF002058E9000B8E06402E6
:1001AE0060030203EBA20092017F01123013900054
:1001BE00D7EFF0D39478748094804004C20080020C
:1001CE00D20030010302058E20000302058E90003E
:1001DE000AE0600302058E04F09000EAE09000DA77
:1001EE00F09000EBE09000DBF09000ECE09000DC93
:1001FE00F09000BDE004F0900008E0FEA3E0FFC325
:10020E0094C8EE940050030202C8D3EF94D0EE943B
:10021E000740030202C8E02438FD900008E034FFD6
:10022E00FCE412114BE4FBFA79A07841120FA0E422
:10023E00FBFA793478421210A9E4FBFA79C87842B5
:10024E00120EAF1211849000BFEEF0A3EFF07C00FF
:10025E007D0A1215189000BFEEF0A3EFF07C007D22
:10026E000A1215069000BFEEF0A3EFF0C39000C285
:10027E00E09F9000C1E09E500D9000BFE0FFA3E014
:10028E00A3CFF0A3EFF09000CFE0F8A3E0F9A3E046
:10029E00FAA3E0FB9000BFE0FEA3E0FFE4FCFDEB61
:1002AE002FFFEA3EFEED39FDEC38FC9000CF121721
:1002BE0048900064E054EFF080109000BFE4F0A38B
:1002CE0074FFF0900064E04410F09000E8E0FEA3AC
:1002DE00E0FFC39000E3E09F9000E2E09E5005EE49
:1002EE00F0A3EFF09000C7E0F8A3E0F9A3E0FAA3C3
:1002FE00E0FB9000E8E0FEA3E0FFE4FCFDEB2FFF47
:10030E00EA3EFEED39FDEC38FC9000C7121748901E
:10031E0000BDE0FBE4FAF9F89000CFE0FCA3E0FDAD
:10032E00A3E0FEA3E0FF12168E9000CB12174890AA
:10033E0000BDE0FBE4FAF9F89000C7E0FCA3E0FD95
:10034E00A3E0FEA3E0FF12168E9000C31217489092
:10035E0000BDE0C394027480948040399000E8E0C0
:10036E00FEA3E0FF9000D4E09F9000D3E09E501ECD
:10037E009000BFE0FEA3E0FFC39000D6E09F900088
:10038E00D5E09E5009900064E04420F08007900074
:10039E0064E054DFF0900008E0FEA3E0FFC394C8D1
:1003AE00EE94004018D3EF94D0EE9407500F9000C7
:1003BE00BFE0FFA3E09000D5CFF0A3EFF09000E8F0
:1003CE00E0FFA3E09000D3CFF0A3EFF09000BCE0ED
:1003DE0004F070069000BBE004F002058E9000B8A9
:1003EE00E06403700E1231339000D8E0FF12320336
:1003FE0002058E9000B8E0640470117B017A0079DA
:10040E00DD7528037F50122DC902058E9000B8E0CD
:10041E00640570647F031230139000D9EFF0E0FF93
:10042E009000D8F0900063E0FD7C007E001215066F
:10043E00AC06AD07EC12114BE4FBFA797F78431250
:10044E0010A9121184900002EFF090000BE0FD7CD9
:10045E00009000D9E0FF7E00121506AC06AD07EC49
:10046E0012114BE4FBFA797F78431210A912118412
:10047E00900000EFF002058E9000B8E06406600375
:10048E0002058E9000B0E0FEA3E0FF4E7003020561
:10049E008EEF64014E70217527FF75282F75295137
:1004AE009000B2E0FEA3E08E2AF52B9000B4E0FEA1
:1004BE00A3E08E2CF52D801E9000B0E07004A3E01A
:1004CE00640270367527FF75282F75295E9000B669
:1004DE00E0752A00F52B7B017A00798F121ACC7BFE
:1004EE00017A00798F12310E788F7C007D017BFFAF
:1004FE007A2F795D121A3B0205879000B0E07004E6
:10050E00A3E06403702B7527FF75282F75296A9059
:10051E000002E0752A00F52B7B017A00798F121A02
:10052E00CC7B017A00798F12310EE490008FF0802F
:10053E00489000B0E064037004A3E064E7703A757D
:10054E0027FF75282F7529739000AEE0F52AA3E0DA
:10055E00F52B7B017A00798F121ACC7B017A007908
:10056E008F12310EE490008FF07B017A00797112B8
:10057E00310EE49000AEF0A3F0E49000B0F0A3F0E2
:10058E009000B8E004F0C39407748094804002E4B5
:10059E00F0900061E0FFF4600302066D900060E0F1
:1005AE00FD7C00640470219000B6E004F0C3940753
:1005BE00748094804002E4F09000B6E06401600321
:1005CE000206DBA3F00206DBED64054C7020900002
:1005DE00B6E0640160030206DBA3E004F0C39403FB
:1005EE007480948050030206DBE4F00206DB900078
:1005FE0060E0FD7C00640870369000B6E064026036
:10060E00030206DB9000BAE004F070069000B9E039
:10061E0004F0D39000BAE094639000B9E064809443
:10062E008050030206DBE4F0A37463F00206DBEDF8
:10063E0064094C60030206DB9000B6E064026003BE
:10064E000206DB9000BAE024FFF09000B9E034FF20
:10065E00F0C3E0648094805074E4F0A3F0806EEFF9
:10066E0064FD7069900060E0640970479000BBF013
:10067E00A3F09000CB121754000000009000CF1290
:10068E00175400000000E49000E2F0A3F09000C7C1
:10069E0012175400000000E49000D3F0A3F0A3F072
:1006AE00A3F09000BDF07B017A0079EA7528037FF4
:1006BE00508017900060E0640870129000E0F07BAC
:1006CE00017A0079E07528017FA1122F83C3900073
:1006DE0007E094B8900006E0940B400EE4F0A3F00F
:1006EE0090000AF09000BDE0A3F0C390006AE09481
:1006FE0064900069E094004006E4F0A3F0B202902A
:10070E0000B6E0FF7E007006751B00751C0EEF64D0
:10071E00014E700C9000B7E07006751B00751C162C
:10072E009000B6E06401700CA3E064017006751BC6
:10073E0000751C1E9000B6E0FF7E006401700CA3D5
:10074E00E064027006751B00751C26EF64024E7085
:10075E0006751B00751C2E9000B6E06403700675BE
:10076E001B00751C3E9000B6E0FF7E006404700610
:10077E00751B00751C46EF64054E7006751B0075E3
:10078E001C4E9000B6E064067006751B00751C5674
:10079E0090000AE0FB7A0064017006751B00751C60
:1007AE00369000B6E0702A9000BBE0FEA3E0FF7C1E
:1007BE00007D0212156DED64014C7015EB4A70113F
:1007CE00900005E030020544DBF0800B5424F080ED
:1007DE000690000574FFF09000EAE0FF75F00A84C1
:1007EE0090000EF0EF75F00A84A3E5F0F09000EBA8
:1007FE00E0FF75F00A84900011F0EF75F00A84A303
:10080E00E5F0F09000ECE0FF75F00A84900014F033
:10081E00EF75F00A84A3E5F0F09000BBE07002A340
:10082E00E070599000187410F0A3F0A3F0A3F0A399
:10083E00F0A3F0900020F0A3F0A3F0A3F0A3F0A398
:10084E00F09000BBE0FAA3E0FB7C007D0AFFAE0255
:10085E0012156D7C007D0A12156D900027EDF07C4F
:10086E00007D0AAF03AE0212156DA3EDF0A3741056
:10087E00F0A3F0A3F0A3F0A3F0020A309000E2E0A0
:10088E00FAA3E0FB7C007D64FFAE021215187C001B
:10089E007D0A121518900018EDF07C007D0AAF034A
:1008AE00AE021215187C007D0A121518A3EDF0A3E6
:1008BE007411F0E47B64FAF9F89000C3E0FCA3E055
:1008CE00FDA3E0FEA3E0FF12168EE47B0AFAF9F810
:1008DE0012168E90001BEBF0E47B0AFAF9F89000EA
:1008EE00C3E0FCA3E0FDA3E0FEA3E0FF12168EE43E
:1008FE007B0AFAF9F812168EEB242090001CF0E415
:10090E007B0AFAF9F89000C3E0FCA3E0FDA3E0FE39
:10091E00A3E0FF12168E90001DEBF09000C1E0FADE
:10092E00A3E0FB7C007D64FFAE021215187C007DF7
:10093E000A121518900020EDF07C007D0AAF03AE70
:10094E00021215187C007D0A121518A3EDF0A3747F
:10095E0011F0E47B64FAF9F89000CBE0FCA3E0FD23
:10096E00A3E0FEA3E0FF12168EE47B0AFAF9F8125A
:10097E00168E900023EBF0E47B0AFAF9F89000CB88
:10098E00E0FCA3E0FDA3E0FEA3E0FF12168EE47BE5
:10099E000AFAF9F812168EEB2420900024F0E47B6C
:1009AE000AFAF9F89000CBE0FCA3E0FDA3E0FEA369
:1009BE00E0FF12168E900025EBF09000BBE0FAA33C
:1009CE00E0FB7C007D0AFFAE0212156D7C007D0AF5
:1009DE0012156D900027EDF07C007D0AAF03AE027C
:1009EE0012156DA3EDF09000DAE0FF75F00A847534
:1009FE00F00A84900029E5F0F0EF75F00A84A3E583
:100A0E00F0F0A37411F09000DBE0FF75F00A84752E
:100A1E00F00A8490002CE5F0F0EF75F00A84A3E55F
:100A2E00F0F0900008E0FEA3E0FFE4FCFD7BA07A6E
:100A3E00867901F8122D42E47B0AFAF9F8122D425A
:100A4E00900030EBF0900008E0FAA3E0FB7C277DED
:100A5E0010FFAE021215187C007D0A1215189000B8
:100A6E0031EDF07C037DE8AF03AE021215187C0069
:100A7E007D0A121518A3EDF0900008A3E07C007D0E
:100A8E0064FFAE021215187C007D0A121518900034
:100A9E0033EDF07C007D0AAF03AE021215187C0018
:100AAE007D0A121518A3EDF0900008E0FEA3E0FFFA
:100ABE007C007D0A121518900035EDF09000E8E0EC
:100ACE00FAA3E0FB7C007D64FFAE021215187C00D9
:100ADE007D0A121518900039EDF07C007D0AAF03E7
:100AEE00AE021215187C007D0A121518A3EDF090B7
:100AFE0000BFE07003A3E0F460359000BFE0FAA3FE
:100B0E00E0FB7C007D64FFAE021215187C007D0AAE
:100B1E0012151890003CEDF07C007D0AAF03AE027A
:100B2E001215187C007D0A121518A3EDF08008909E
:100B3E00003C740AF0A3F09000E0E0FF75F00A8428
:100B4E0075F00A8490003EE5F0F0EF75F00A84A38C
:100B5E00E5F0F09000DDE0FF75F00A8475F00A8490
:100B6E00900040E5F0F0EF75F00A84A3E5F0F09008
:100B7E0000DEE0FF75F00A8475F00A84900042E50D
:100B8E00F0F0EF75F00A84A3E5F0F09000DFE0FFDF
:100B9E0075F00A8475F00A84900044E5F0F0EF7564
:100BAE00F00A84A3E5F0F09000D9E0FFFD7C00C3CD
:100BBE00946474809480400DEF75F0648475F00A2F
:100BCE0084AFF080027F10900047EFF0C3ED940ADF
:100BDE00EC6480948040109000D9E075F00A847522
:100BEE00F00A84AFF080027F10900048EFF0900082
:100BFE00D9E075F00A84900049E5F0F09000F1E03C
:100C0E00FEA3E0FFC394E8EE940340127C037DE85C
:100C1E001215187C007D0A121518AF0580027F1080
:100C2E0090004AEFF09000F1E0FEA3E0FFC3946461
:100C3E00EE940040127C007D641215187C007D0A33
:100C4E00121518AF0580027F1090004BEFF0900048
:100C5E00F1E0FEA3E0FFC3940AEE940040127C0084
:100C6E007D0A1215187C007D0A121518AF05800238
:100C7E007F1090004CEFF09000F1E0FEA3E0FF7CBF
:100C8E00007D0A12151890004DEDF09000B2E0FEB6
:100C9E00A3E0FFC39464EE6480948040127C007DD8
:100CAE006412156D7C007D0A12156DAF0580027FF2
:100CBE001090004FEFF09000B2E0FEA3E0FFC3945F
:100CCE000AEE6480948040127C007D0A12156D7CC1
:100CDE00007D0A12156DAF0580027F10900050EF57
:100CEE00F09000B2E0FEA3E0FF7C007D0A12156DCD
:100CFE00900051EDF09000B4E0FEA3E0FFC39464C9
:100D0E00EE6480948040127C007D6412156D7C0030
:100D1E007D0A12156DAF0580027F10900053EFF023
:100D2E009000B4E0FEA3E0FFC3940AEE64809480CA
:100D3E0040127C007D0A12156D7C007D0A12156D25
:100D4E00AF0580027F10900054EFF09000B4E0FEEB
:100D5E00A3E0FF7C007D0A12156D900055EDF0901A
:100D6E000000E075F00AA4FFAEF0C39464EE648058
:100D7E00948040107C007D64121518EF75F00A8483
:100D8E00AFF080027F10900057EFF0900000E075FA
:100D9E00F00AA4FFAEF0C3940AEE64809480401073
:100DAE007C007D0A121518EF75F00A84AFF08002F0
:100DBE007F10900058EFF0900000E075F00AA4FF4D
:100DCE00AEF07C007D0A121518900059EDF09000DF
:100DDE00D7E0FFFD7C00C3946474809480400DEFD7
:100DEE0075F0648475F00A84AFF080027F10900075
:100DFE005BEFF0C3ED940AEC648094804010900099
:100E0E00D7E075F00A8475F00A84AFF080027F1087
:100E1E0090005CEFF09000D7E075F00A8490005DD2
:100E2E00E5F0F09000B6E0FD7C009000647006E006
:100E3E004401F08004E054FEF0ED64014C90006437
:100E4E007006E04402F08004E054FDF09000B6E03D
:100E5E0064029000647006E04404F08004E054FBE9
:100E6E00F09000B9E0FEA3E0FF7C007D0A121506AB
:100E7E00D39000D4E09F9000D3E09E401390006486
:100E8E00E03002064408F002013C54F7F002013C47
:0A0E9E00900064E054F7F002013CFC
:0C23AE004300ED2359554300EA150D379C
:1031B300E4FEEEC3940874809480500FC297EF131B
:0B31C30092A3EFC313FFD2970E80E72A
:0131CE0022DE
:10327500C29300C29700D293001231B3AF05123149
:04328500B3C293221B
:102E0800E4FDC29300C29700D293001231B3E4FFED
:102E1800EFC39408748094805011C297EDC313FDDA
:102E280030A303430580D2970F80E5C29300C29771
:0C2E380000D29700C2A300D2A300AF0597
:012E4400226B
:102E7E00E4FFEFC3940374809480502874ED2FF513
:102E8E0082E43400F583E0FEC4540F75F00AA4FD0D
:102E9E00EE540F2DFE74EA2FF582E43400F583EE26
:042EAE00F00F80CED3
:012EB20022FD
:102E4500E4FFEFC3940374809480502C74EA2FF54B
:102E550082E43400F583E0FE75F00A84C454F0FD85
:102E6500EE75F00A84ED25F0FE74ED2FF582E4345D
:082E750000F583EEF00F80CAA6
:012E7D002232
:102FB500122E45E4FD7F8E1232759000EFE0FD7F05
:102FC500801232759000EEE0FD7F8212327590001E
:0F2FD500EDE0FD7F841232757D807F8E023275B4
:103155007F81122E089000EFEFF07F83122E0890EA
:1031650000EEEFF07F85122E089000EDEFF0022EB5
:013175007EDB
:0431CF00D2A07F0A01
:1031D300000000000000000000000000000000AE3E
:0631E300071FEE70EB2255
:06002600122EB31231F1AD
:0F002C00D2A11231CFC2A17F0A1231D3C2A022BA
:0C330F00C2A11231CFD2A17F0A0231D33B
:022EB300AD0769
:102EB500E4FCECC39408748094805024C2A07F0A7B
:102EC5001231D3ED30E704D2A18002C2A17F0A12EC
:102ED50031D3D2A0ED25E0FD7F0A1231D30C80D28B
:022EE500C2A089
:012EE70022C8
:1030E800E4FCECC394087480948050171231CFED3F
:1030F80025E0FD30A103430501C2A07F0A1231D3A8
:053108000C80DFAF05A3
:01310D00229F
:0831E90012002C7F90122EB39E
:1031F1001231CFA2A1E433FDC2A07F0A1231D3AFB5
:0132010005C7
:0132020022A9
:10000300C2A0EF24FF92A17F0A1231D31231CFC2D3
:08001300A0D2A17F0A0231D343
:02301300AB0709
:10301500E4FD1231E9EB4440FF1200267F91122EA8
:10302500B31231F11230E8E4FF1200031230E8ADBB
:0B303500077F0112000312330FAF05EC
:01304000226D
:10320300AB071231E97F40122EB31231F1AF031233
:083213002EB31231F102330F5A
:0E32BC001231E9E4FF122EB31231F102330F8A
:102F83008F2412002C7FA0122EB31231F1AF241222
:102F93002EB31231F1AF281528EF60131214AEFFD0
:102FA300122EB31231F1740129F9E43AFA80E602E0
:022FB300330FDA
:022DC9008F2455
:102DCB0012002C7FA0122EB31231F1AF2412002669
:102DDB007FA1122EB31231F180121528E528601550
:102DEB00E4FF120003740129F9E43AFA1230E8EF18
:0D2DFB001214F480E57F0112000302330F73
:1023BA004400E4000000004200E800004200E2009D
:0123CA000012
:043195007F057E0034
:10319900EF1FAA0670011E4A600FE4FDEDC3940CEF
:0931A9007480948050EA0D80F35B
:0131B20022FA
:02306F00A907AF
:10307100E4FBEBC39408748094805016C2AFC294F1
:10308100E9139294123195D294E9C313F9D2AF0B9B
:0930910080E07F057E0002319908
:10304100E4FBEBC3940874809480501FC2AFC29418
:10305100ECC313FCD2947F017E00123199309403AA
:0D306100430480123195D2AF0B80D7AF042D
:01306E00223F
:10309A00C203D2947F0C7E00123199C2947F507E73
:1030AA0000123199D2947F0A7E00123199A2949229
:0630BA0003123195A20390
:0130C00022ED
:102C6300E4F524F525FFFE12309A7FCC12306F7FF6
:102C73004412306F12309A7FCC12306F7FBE123005
:102C83006F1230417524008F25123041EF4524FC2B
:102C9300E525FDE412114BE4FBFA7920783F120F8E
:0C2CA300A01211849000E8EEF0A3EFF006
:012CAF002202
:102D86003F065B4F666D7D077F6F777C395E797195
:102D96000040761E7038375C733E783D6750376E5C
:102DA600BF86DBCFE6EDFD87FFEF46010204081084
:102DB600204080070B0F13060A0E1205090D110499
:032DC600080C10E6
:1023CB0041006400410001004100020A4100630A20
:1023DB00410062004100680041006B004100000AAF
:1023EB0041000B0A6050000E10101110101110104C
:1023FB000C101010111010101210101011101010D2
:10240B000F101010101110101810101010101010B9
:10241B000E101010101010100110101010101010C2
:10242B0002101010101010100310101011101010BB
:10243B000410101011101010021B000E410065004B
:10244B00410005FF410060004100610042000800AF
:10245B00004200660000420003000042000C000036
:10246B0042005E000042006900004200060000418D
:03247B00000A0054
:0E32CA00900064E0F4F58043A08053A01F2222
:0E32D800900062E0F4F58043A08053A01F2216
:0D330200900068E0F58043A0A053A01F22BA
:102CB000E4F58043A0C053A01F900065E0FF251CF1
:102CC000F582E4351BF583E0902D8693F4F580437F
:102CD000A0E053A01FEF902DB193FF900005E0FE00
:102CE000EF5EF58043A0C053A01F900065E004F0A4
:0C2CF000C39408748094804002E4F02239
:1027E3007FFF7EFFD2B2D2B3C2C4C2C2C2B5E5B0CC
:1027F300F4540F606320B2027F0220B3027F03C24E
:10280300B2C2B3D2C4D2C2D2B520C402E4FE20C243
:10281300027E0120B5027E02EFF46024EEF4602014
:10282300EF25E025E024B9F582E4342DF583E58234
:102833002EF582E43583F583E493900060F08007FE
:10284300E4900060F0A3F0900061E0C394FA748018
:1028530094805043E004F022900060E06032A3E0F3
:10286300FF7E00D394FA748094805024C3EF946461
:1028730074809480500474FFF022C3EF94C8EE6414
:10288300809480900061500474FEF02274FDF02265
:07289300E4900060F0A3F0E7
:01289A00221B
:102713007FFF7EFFD2B0D2B1D2B2D2B3C2C4C2C2A3
:10272300C2B5C2B4E5B0F4540F607520B002E4FF43
:1027330020B1027F0120B2027F0220B3027F037522
:10274300B0F075C0FFC2B0C2B1C2B2C2B3D2C4D27C
:10275300C2D2B5D2B420B4027E0320B5027E0220D9
:10276300C2027E0120C402E4FEEFF46022EEF460B4
:102773001EEF25E025E024B9F582E4342DF583E549
:10278300822EF582E43583F583E493900060F09024
:102793000061E0C394FA748094805043E004F02213
:1027A300900060E06032A3E0FF7E00D394FA74806F
:1027B30094805024C3EF946474809480500474FF15
:1027C300F022C3EF94C8EE648094809000615004BB
:0F27D30074FEF02274FDF022E4900060F0A3F099
:0127E20022D4
:102B88007FFFD2B0D2B1D2B2D2B3E5B0F4540F6065
:102B98003720B0027F0720B1027F0620B2027F05EE
:102BA80020B3027F04EFF46007900060EFF0800725
:102BB800E4900060F0A3F0900061E0C394FA7480A0
:102BC80094805031E004F022900060E06020A3E09F
:102BD800FFD394FA748094805014EF9464748094B2
:102BE80080400474FFF02290006174FEF022E490AB
:052BF8000060F0A3F0F5
:012BFD0022B5
:10321B00438E805389F0438904E4F58AF58CC28D83
:07322B00D28CD2AFD2A92220
:10326000438E4053890F758B50758DFBC28FD28E64
:05327000D2AFD2AB2239
:03001B000224F8C4
:1024F800C0E0C0F0C083C082C0D075D000C000C0AA
:1025080004C005C006C007900004E004F0700690FF
:102518000003E004F0900002E0FF900001E0C39F98
:10252800900064E050054480F08003547FF012323C
:10253800CA900063E0FF900001E004F0C39F4002EE
:10254800E4F0900000E0FF90006BE0C39F9000680B
:10255800E050054420F0800354DFF012330290006D
:102568000BE0FF90006BE004F0C39F4002E4F0C36F
:10257800900004E0940A900003E0940050030226BF
:1025880018E4F0A3F090000DE004F0700690000C41
:10259800E004F090005FE004F0700690005EE00454
:1025A800F090006AE004F07006900069E004F09092
:1025B800000AE06401700E900007E004F0700690D5
:1025C8000006E004F0900067E004F07006900066F2
:1025D800E004F01232CA123302122CB0C390006722
:1025E800E09464900066E094004025E4F0A3F0C213
:1025F8008CAF8CEFFEAD8AEDFF7C007D0A121506CC
:10260800900008EEF0A3EFF0758C00758A00D28C6C
:10261800D007D006D005D004D000D0D0D082D08347
:05262800D0F0D0E0320B
:09247E004200F100004100F000F1
:0732E600D2901232EDC290FC
:0632ED0000007F27DFFE58
:0132F30022B8
:10323200E4FEC2AFEEC3940874809480500612324A
:06324200E60E80F0D2AFA1
:013248002263
:102CFC00E4F5D9F5F9F5E9123232D2DE20DF032002
:102D0C0091FAC2DE20DF25AFF9EFFEADE9EDFFACA5
:102D1C0006E412114B7B967A43798B783C120FA008
:102D2C001211849000F1EEF0A3EFF022C2DFE490D8
:062D3C0000F1F0A3F022FB
:0A331B00E4F5D875D90175DA112226
:03003B00022F1D74
:102F1D00C0E0C083C082C2DE9000F0E06401701595
:102F2D0030D8057402F0800D9000F030DF05740389
:102F3D00F08002E4F0C2DFC2D8C2D9C2DAD082D0AA
:042F4D0083D0E0321B
:10317600E4FEF5F9F5E9C2DFC2AFD2DEEEC394088C
:0E3186007480948050061232E60E80F0D2AFB4
:013194002218
:102EE8009000F0E064027025AFFAEFFEADEAEDFF66
:102EF800AC06E412114B7B967A43798B783C120F1F
:102F0800A01211849000F1EEF0A3EFF022E49000FB
:052F1800F1F0A3F0221E
:103133009000F0E0D39400748094804008122EE84D
:10314300E49000F0F09000F0E07006123176740124
:02315300F02268
:0E32F4002825642C2564290070776D0D0A00D2
:10248700C1174100AD005E007100000000000000B0
:102497000000000000000000000000000000000035
:1024A7000000000000000041006C005E008F00008B
:1024B7000000000000000000000000000000000015
:1024C7000000000000000000000000004200B00013
:1024D700004200AE00004200B200004200B400001B
:0A24E70042006D000042006F00008B
:10324900759850438E01438E0475D7C775D6FE43D2
:073259008E10D2AFD2AC22AF
:0300230002222E88
:10222E00C0E0C0F0C083C082C0D075D000C000C076
:0D223E0001C002C003C004C005C006C007F7
:10224B00754000309904C299C2172098030223935A
:10225B00C29885994090006CE02471F582E43400BB
:10226B00F583E540F064296003022325900071E0BB
:10227B00642860030223257544FF7545327546F4C7
:10228B0075470175480075496D754A01754B0075A9
:10229B004C6F7B017A007971121F5DEF64024E70F7
:1022AB006A90006DE0FEA3E0FFC3EE648094804073
:1022BB0046D3EF94E7EE64809483503BA3E0FEA3F8
:1022CB00E0FFC3EE64809480402DD3EF94E7EE647F
:1022DB00809483502290006DE0FFA3E09000B2CF7A
:1022EB00F0A3EFF090006FA3E0FF9000B4EEF0A32B
:1022FB00EFF09000B0800D9000B07403F0A374E782
:10230B00F09000AEE4F0A304F080649000B074038E
:10231B00F0A374E7F09000AE8008E540B4230B9077
:10232B0000B0E4F0A37402F0804590006CE0FF2451
:10233B0070F582E43400F583E0640D703274712F14
:10234B00F582E43400F583E0B40A2478717C007DD7
:10235B00017BFF7A3279FC121952EF3395E04F7003
:10236B00059000B080049000AEE4F0A37403F090ED
:10237B00006CE004F09000B0E07002A3E060099004
:08238B00006CE4F0900071F019
:10239300D007D006D005D004D003D002D001D0009E
:0B23A300D0D0D082D083D0F0D0E03248
:083338002017FDD2178F992226
:10310E008B248A258926AB24AA25A9261214AE6003
:10311E00130526E5267002052514F91214AEFF12CA
:05312E00333880E222AD
:0624F100016F0001700004
:062FE4008B698A6A896B0B
:102FEA001215A3FFAEF0AB6CAA6DA96E1215A3FD64
:102FFA00AB69AA6AA96BE5F08DF0121606AB69AA4D
:09300A006AA96BEE8FF0021606B4
:102B0E009000021215CEFFAEF01215A3FDACF0D35D
:102B1E009FEC9E4006AE04AF058009900002121590
:102B2E00CEFFAEF08E1D8F1E9000041215CEFFD379
:102B3E00E51E9FE51D95F05003AF1E229000021278
:102B4E0015CEFFC3ED9FEC95F050051215A3800630
:102B5E009000021215CEFFAEF08E1D8F1E90000457
:102B6E001215CEFFAEF0D3E51E9FE51D9E400AACBA
:092B7E001DAD1EAE04AF05800080
:012B8700222B
:042BFE008C618D62F7
:102C0200E4F566F565F564F563F567F568C3E568AF
:102C12009562E56795615033E56825E0FFE5673326
:102C22008F82F5831215CEFFAEF0E4FCFDE5662F30
:102C3200F566E5653EF565ED3564F564EC3563F5FD
:102C4200630568E56870C6056780C2AE61AF62ABB6
:102C520007AA06E4F9F8AF66AE65AD64AC63021686
:012C62008EE3
:10294900E4F571F5729000021215CEFF900004E5CE
:10295900F08FF01216251215A3FF900002E5F08FF3
:10296900F0121625EC8DF0121606C3E56F94037468
:102979008094805002056F9000021215CEFFAEF0D0
:102989001215A3FDACF0C39FEC9E5004AF05800760
:102999009000021215CEFF8F719000021215CEFF22
:1029A900D3ED9FEC95F040061215A3FF8007900028
:1029B900021215CEFF8F729000041215CEFDACF0F5
:1029C9007E00C3EF9DEE9C500122AF717E00D3EFD4
:1029D9009DEE9C400280099000041215CEFFAEF0D6
:0129E90022CB
:0A29EA008B088A09890A8C0B8D0CFA
:1029F400E4F510F50FF50EF50DF511900002121522
:102A0400CEFF900004E5F08FF01216251215A3FFF7
:102A1400900002E5F08FF0121625E50B850CF012FC
:102A24001606C3E57094037480948050020570E424
:102A3400F511E511C395705032AB08AA09A90A75BE
:102A4400F002E511A4F58285F0831215CEFFAEF0F5
:102A5400E4FCFDE5102FF510E50F3EF50FED350E06
:102A6400F50EEC350DF50D051180C7AF70AB07E41D
:0E2A7400FAF9F8AF10AE0FAD0EAC0D02168ED3
:0A289B008B128A1389148C158D1618
:1028A500E4F517F518C3E5189516E51795154003D2
:1028B500022948E5182401F51AE43517F519C3E589
:1028C5001A9516E5199515506CE51A25E0FFE519D9
:1028D50033AB12AA13A9148F82F5831215CEFDAC62
:1028E500F0E51825E0FFE517338F82F5831215CE45
:1028F500D39DE5F09C4034E51825E0FFE51733FE50
:10290500E92FF9EA3EFAC003C002C001E51A25E045
:10291500FFE51933FEE5142FF9E5133E8B6CF56DD4
:10292500896ED001D002D003122FE4051AE51A7082
:102935008D051980890518E51860030228AA051771
:032945000228AABB
:01294800226C
:100EA8000211F0E86480F8E933E83360110460F077
:100EB800ED33EC337009E8FCE9FDEAFEEBFF2204B0
:100EC80060DED3EB9FEA9EE99DE8C2E78CF0C2F7AB
:100ED80095F0400CE8CCF8E9CDF9EACEFAEBCFFB77
:100EE8001211BB85D0F05804700320D5B3E8047004
:100EF800075002B2D50211FA92D5EC0460F7E4CC9F
:100F0800C0E0C398F8603B94186008400DD0E0FB3F
:100F18000211D2E4FBFAC9FC8028E830E406E4C9EF
:100F2800FBE4CAFCE830E305E4C9CACBFCE8540793
:100F38006010F8C3E913F9EA13FAEB13FBEC13FC9E
:100F4800D8F130F52FC3E49CFCEF9BFFEE9AFEED41
:100F580099FDD0E0FBEF4E4D4C701222DB030211DD
:100F6800F7EC2CFCEF33FFEE33FEED33FDED30E70D
:100F7800EB0211D2EF2BFFEE3AFEED39FDD0E0FB8C
:100F880050130BBB00030211FAED13FDEE13FEEF35
:080F980013FFEC13FC0211D25F
:100FA000EC4D6011E8497017ED33EC3304600DE44B
:100FB000FCFFFEFD22E933E8330470F80211F01261
:100FC00011BB58046009E4CC248150062850090262
:100FD00011FA2840030211F7C0E0EB4A7044B980CF
:100FE00006D0E0FB0211E6EF4E701CBD8008EBFF5F
:100FF000EAFEE9FD80EBE98DF0A4FEE5F002108940
:10100000E9CDF9EAFEEBFFEF89F0A4FCE5F0CE892B
:10101000F0A42EFFE435F0CD89F0A42DFEE435F0E8
:101020008067EF4E7005BD80D780C3EF8BF0A4AC16
:10103000F0EE8BF0A42CFCE435F0F8EF8AF0A42C51
:10104000E5F038FCE433CB8DF0A42CFCE5F03BF864
:10105000EE8AF0A42CFCE5F038F8E433CF89F0A454
:101060002CFCE5F038CF3400CE89F0A42FFFE5F05A
:101070003EFEE433C98DF0A42EFEE5F039CD8AF0B2
:10108000A42FFFE5F03EFEE43DFD33D0E0FB50072A
:101090000BBB000F0211FAEC2CFCEF33FFEE33FE1A
:0610A000ED33FD0211D248
:1010A6000211FAEC5D046005E8590470030211F0C0
:1010B6001211BB580460F6EC4860F2EC7004FDFEB9
:1010C600FF22C860DB2481C85009C398600250061D
:1010D6000211F79850CAF582E9294B4A7005AB828E
:1010E6000211E675F0007C1A7880C3EF9BEE9AED4C
:1010F60099400DC3EF9BFFEE9AFEED99FDE842F095
:10110600DC23ACF0D0E0FFD0E0FED0E0FDAB8220E7
:10111600E7101BEB60BAEC2CFCEF33FFEE33FEED71
:1011260033FD0211D2E803F830E705C0F075F00090
:10113600EF2FFFEE33FEED33FD40B830E7C280AA55
:1011460075F020800E75F010800575F0087D007E24
:10115600007F003392D530D503121720EC334010B0
:10116600EF33FFEE33FEED33FDEC33FCD5F0ED222D
:0E117600E5F0247EA2D513CC92E7CDCEFF2269
:10118400EDD2E7CD33EC3392D524814006E4FFFE63
:10119400FDFC22FCE4CFCECDCC24E0501174FF80C2
:1011A400EDC3CC13CCCD13CDCE13CECF13CF04705F
:0711B400F030D5DE02172028
:101A7000E53B2427F8E6053B227824300A02782744
:101A8000E475F00112178E0214AE2003EB7F2ED204
:101A9000038018EF540F2490D43440D4FF30070B48
:101AA000EF24BFB41A0050032461FFE53C60021527
:101AB0003C053FE53F7002053E300A0D7824E47591
:101AC000F00112178EEF0214F40230C17403D20A2F
:101AD0008003E4C20AF53B8B248A258926E4F53C81
:101AE000F53EF53FE53C60077F20121AAB80F575A7
:101AF0003DFFC204C203C205C206C208C209C20B2E
:101B0000121A79FF700D300A057F00121ABCAF3F20
:101B1000AE3E22B4255FC2D5C207121A79FF24D087
:101B2000B40A00501A75F00A783C30D50508B6FFA3
:101B30000106C6A426F620D5047002D20680D92458
:101B4000CFB41A00EF5004C2E5D207021DA9D20497
:101B500080C6D20380C0D20580BCD2D580BAD2085C
:101B600080B47F20121AAB2005077401B53C0040F9
:101B7000F1121A70FF121AAB021AE4D20BD20980CA
:101B800095121A70FB121A70FA121A70F94A4B70F9
:101B90000679A07A1E7BFF20052EE53C602A7E0098
:101BA0008E827583001214C760060EEE653D70F0DC
:101BB000C2D5EBC0E0EAC0E0E9C0E0EE121E09D0F9
:101BC000E0F9D0E0FAD0E0FB1214AEFF60AAEBC05F
:101BD000E0EAC0E0E9C0E0121AABD0E02401F9D09D
:101BE000E03400FAD0E0FBE53D0460DCD53DD9806F
:101BF00087D20580A2121DEC60F7E53D700104124A
:101C00001205A93D600DE53D600914F53D121E93D6
:101C1000EF60F3EA30E702F404C3995077EAF42561
:101C20003D0430E701E404F53D800D121DEC60C178
:101C3000EA053D253D121205EA783AF630E701E45F
:101C4000253D04D53D0420080114121E09E4C0E01E
:101C5000121E93783AE6601320E70714F6121A93DF
:101C6000802204F6D0E014C0E07F00121A93E53D14
:101C70006007121A8A153D800B300803121A8AD0A9
:101C8000E0021AE4D0E00480C5121DEC60A0E53D3E
:101C900004121205783AEAF6E53D200802600104D4
:051CA0002404121E09DE
:101CA50074FF04C0E0121E93121A93E53D2008024A
:101CB5006003121A8AD0E0B53DE87F45121A9D7877
:101CC5003AE67F2B30E7047F2DF404C0E0121AAB0F
:101CD500D0E075F00A84C0F0121A94D0E0121A947C
:101CE500021AE4791080027908C209C20B8008D271
:101CF500D5790A8004790AC2D5E53D047002F53D1F
:101D0500E4FAFDFEFF121A70FC7B08200413121A78
:101D150070FD7B1030030A121A70FE121A70FF7BD9
:101D250020EC3382D592D55013C3E43003069FFFD0
:101D3500E49EFEE42004039DFDE49CFCE4CBF8C294
:101D450004EC700CCFCECDCCE824F8F870F38017F6
:101D5500C3EF33FFEE33FEED33FDEC33FCEB33FB2A
:101D6500994002FB0FD8E9EB300405F8D0E0C448F0
:101D7500B204C0E00AEC4D4E4F78207B0070C2EAF9
:101D8500B53D0040BCC0E0121E0BD0F0D0E02004F1
:101D950004C4C0E0C4B204C0F0121A94D0F0D5F067
:101DA500EB021AE41217AE1B81531CE8581B524C68
:101DB5001B4E421CEC4F1CF4441CF4491B67431C8E
:101DC500FA551C2B461C89451BF5471EC0501B5652
:101DD5002D1B5A2E1B7D2B1B5E231B7B201EA92A28
:101DE5001B164800001B75E53DB4FF03753D061243
:101DF5001A70FC121A70FD121A70FE121A70FF7812
:101E050033021234790AA2D5200614300809B91014
:101E1500020404B9080104A2D520090250010420D6
:101E250005689205B53C005034C0E07F20300619A6
:101E35007F30A20572097208500F121E62C205C2D8
:101E450009C208C20B7F30800F300803E9C0E012D9
:101E55001AAB300803D0E0F9D0E0B53CCC30081718
:101E65007F30B9100C121AAB7F583007077F788086
:101E750003B90803121AAB3005057F2D021AAB7F93
:101E850020200BF87F2B2009F322920580CF7F00BD
:101E9500B4070050052433F8E6FF22286E756C6CF4
:101EA5002900D204121A703004F8C204783C30D5E7
:101EB5000108F6021B162D50434958121A702403C7
:101EC500B405004001E4901EBB93121A9C743A12AB
:0A1ED5001A9CD206753C04021CE8BA
:101EDF00E556300F0104F823282444F822784130C6
:101EEF000F027844E475F00112178E0214AE60EC05
:101EFF00C55A7002155914C55A200F04FF02001E4F
:101F0F00784174FFF5F002179EFF023289E55760A2
:101F1F0006D557037F0022200F0F12329CEF600867
:101F2F00055AE55A70020559227841121785121485
:101F3F00AEFF60E97841E475F00112178E80DE1272
:101F4F001F26EFC0E0121F18D0E040F380A0D20F81
:101F5F008002C20F8B418A428943E4F558F556F54A
:101F6F0059F55A755700C20EC20CC20DC210121E7F
:101F7F00ECFF7005AF587E0022B42530121EECFF27
:101F8F0024D0B40A00500C75F00AC557A42557F594
:101F9F005780E924CFB41A00EF5002C2E50221FAAC
:101FAF00D20D80D8D20C80D4D21080D0EF121F184F
:101FBF005008121F4EEF600E80A9EFC0E0121F26CF
:101FCF00D0E06F609EEF6074121EFD80A7121F2677
:101FDF00EF6069E557700705578003121F26EF6002
:101FEF001420100E121EDFE475F00112178EEF127F
:101FFF0014F4D557E62010040556055880BA121F61
:10200F001CEFC0E0121F18D0E05004121EFDE4FFB9
:10201F0020100E121EDFE475F00112178EEF12144E
:10202F00F4EF70DA20100405560558808BE55760E1
:10203F00020557121F4E121F1CEF70C6300F04E41B
:10204F00121EFDE5586003021F837EFF7FFF22E50E
:10205F005760020557121F4ED212D211121F1CEFDA
:10206F0030120260D7C0E0121EFDD0E0AC5BAD5C59
:10207F00AE5DAF5E1226408C5B8D5C8E5D8F5E50C9
:10208F0007121F26C21180D42010102011020558EC
:08209F00121EDF121785055621
:1020A70012172E021F72D0E0809A7900800A7910E9
:1020B700800679088002790AD211E5576002055730
:1020C700E9C0E0121F4EEF60DD121F26BF2D04D2BC
:1020D7000E8003BF2B09121F4EEF60CA121F1CD0C0
:1020E700E0B40A028033B40802802EBF30277002A2
:1020F7007408C211C0E0121F1CD0E0BF7802800331
:10210700BF58160557D557028007D55704D21180F7
:102117000B741080197002740ABF000AEFF8E4FC10
:10212700FDFEFF0221ADC0E0EF121EFDD0E0F9E495
:10213700FCFDFEFFE9C0E0ECC0E0EDC0E0EEC0E072
:10214700EFC0E0121F1CEFF8D0E0FFD0E0FED0E0B8
:10215700FDD0E0FCD0F0E8604DB461004007B47BEF
:10216700005002C2E524D0503DFA24F6500724F966
:102177005034240AFAEAB5F000502BCFA9F0A42F67
:10218700FF92D5E9C5F0CEA4A2D53EFE92D5E9C50A
:10219700F0CDA4A2D53DFD92D5E9C5F0CCA4A2D53A
:1021A7003CFCC211808EE8C0E020102A20110805EF
:1021B70058300E03121720121EDF121785055620FE
:1021C7000C0B200D0DEE8FF0121606800912172E3C
:1021D7008004EF1214F4D0E0121EFD021F722010CB
:1021E70010121EDF1217850556E559855AF012168B
:1021F7000680E81217AE203C5320B5581FB34C1F7A
:10220700AF421F8B4820B94F20BD441FDC4320B18C
:102217004920BD55205E46205E45205E471FB72AF0
:0722270021E54E00001FBB82
:1011BB00E9D2E7C933E833F892D5EDD2E7CD33EC7A
:0711CB0033FC5002B2D522F3
:1011D200EC30E7100FBF000C0EBE00080DBD00047E
:1011E2000BEB6014A2D5EB13FCED92E7FD2274FF2A
:1011F200FCFDFEFF22E480F8A2D574FF13FC7D8083
:03120200E480EF96
:10120500F920E72824F950037907E4F42402FB18B0
:10121500DBFDE624FB5014E9600DE4F618E604F660
:0F122500B40A08E4F6D9F57401F60A22C2D522FC
:10123400ED33EC3392D5FA602AB4FF33EDC2E77B89
:10124400FF60067A127959E4227A12796220D50471
:101254007A12795D224E614E002B494E46002D498B
:101264004E4600E47A08F608DAFC7B00740722E8AC
:10127400C0E0ECC0E0EDC0E0EEC0E0EFC0E0EA7535
:10128400F010A4CAABF075F04DA42BFBE435F0FCD0
:10129400EA2410FAEB34C5FBEC34D9FCEDC2E7FFC9
:1012A40075F056A4F42411C5F0F434C58FF0A42AC3
:1012B400E5F03BE43CF620E714121378D0E0FFD0CD
:1012C400E0FED0E0FDD0E0FC1210A98014F404127A
:1012D4001378D0E0FFD0E0FED0E0FDD0E0FC120FA8
:1012E400A0D0E0F8E6FAEDD2E7CD33EC332482FB6C
:1012F400E4C3CF33CFCE33CECD33CD33DBF37B0753
:1013040075F00A846004F6081B0AE5F0F6088FF00D
:10131400740AA4FFACF08EF0740AA42CFEACF05056
:10132400010C8DF0740AA42CFDE435F0F608DBDE24
:0313340074072219
:10262D00C213C214C215C216F9E4F55FF560FCFDC4
:10263D00FEFFE91012EA20150CB42D04D215D32299
:10264D00B42B02D32224D0504794095041240A3090
:10265D001615F88560F0740AA42872E74051C5F08C
:10266D00704D85F060D322D214C0E0E4FBFA7920DE
:10267D007841120FA0ECF8EDF9EEFAEFFBD0E0FC8B
:10268D00E4121150120EAF3013B4155FD322240A89
:10269D00201620B4FE0720131AD213D32224EB6088
:1026AD000424E0700EA2159213D216C215D322C3C4
:1026BD000211F0E430160BE560301502F404A2139C
:1026CD0092153014EA255F20D2E5A2E7921650024A
:1026DD00F404B4260050D8CCC0E0EDC0E0EEC0E06C
:1026ED00EFC0E0EC121378D0E0FFD0E0FED0E0FDBB
:1026FD00D0E0FC201605120FA080031210A9301592
:06270D0003121337C32282
:10133700ED33EC33600A047003BD8004ECB2E7FCC4
:011347002283
:101348003F8000004120000042C80000447A0000AD
:10135800461C400047C35000497424004B1896802F
:101368004CBEBC205A0E1BCA6753C21C749DC5AE26
:10137800FB60065407601C23231213A6EB54386045
:10138800091213921213A1120FA0ECF8EDF9EEFA5C
:10139800EFCB22EB1213A180F1543803241C9013D5
:1013A80048FE93FC0EEE93FD0EEE930ECE93FF22B5
:102A8E0002003EE493A3F8E493A34003F68001F220
:102A9E0008DFF48029E493A3F85407240CC8C33349
:102AAE00C4540F4420C8834004F456800146F6DF18
:102ABE00E4800B01020408102040809023AEE47ED7
:102ACE00019360BCA3FF543F30E509541FFEE4930D
:102ADE00A360010ECF54C025E060A840B8E493A3D4
:102AEE00FAE493A3F8E493A3C8C582C8CAC583CAFF
:102AFE00F0A3C8C582C8CAC583CADFE9DEE780BEB7
:0124F70000E4
:1013B800E709F608DFFA8046E709F208DFFA803E17
:1013C80088828C83E709F0A3DFFA8032E309F60804
:1013D800DFFA8078E309F208DFFA807088828C836C
:1013E800E309F0A3DFFA806489828A83E0A3F60820
:1013F800DFFA805889828A83E0A3F208DFFA804CFA
:1014080080D280FA80C680D4806980F280338010D0
:1014180080A680EA809A80A880DA80E280CA803339
:1014280089828A83ECFAE493A3C8C582C8CCC583B1
:10143800CCF0A3C8C582C8CCC583CCDFE9DEE78081
:101448000D89828A83E493A3F608DFF9ECFAA9F000
:10145800EDFB2289828A83ECFAE0A3C8C582C8CC56
:10146800C583CCF0A3C8C582C8CCC583CCDFEADE6F
:10147800E880DB89828A83E493A3F208DFF980CCD1
:1014880088F0EF60010E4E60C388F0ED2402B404CA
:101498000050B9F582EB2402B4040050AF23234571
:0614A8008223901408737A
:1014AE00BB010689828A83E0225002E722BBFE023C
:0914BE00E32289828A83E493226F
:1014C700BB010CE58229F582E5833AF583E02250DA
:1014D70006E92582F8E622BBFE06E92582F8E22224
:0D14E700E58229F582E5833AF583E493223E
:1014F400BB010689828A83F0225002F722BBFE01D7
:02150400F322D0
:10150600EF8DF0A4A8F0CF8CF0A428CE8DF0A42EF9
:02151600FE22B3
:10151800BC000BBE0029EF8DF084FFADF022E4CCB7
:10152800F875F008EF2FFFEE33FEEC33FCEE9DEC80
:10153800984005FCEE9DFE0FD5F0E9E4CEFD22EDC6
:10154800F8F5F0EE8420D21CFEADF075F008EF2F10
:10155800FFED33FD4007985006D5F0F222C398FD01
:051568000FD5F0EA229E
:10156D00C2D5EC30E709B2D5E4C39DFDE49CFCEE99
:10157D0030E715B2D5E4C39FFFE49EFE121518C3E4
:10158D00E49DFDE49CFC800312151830D507C3E4DF
:06159D009FFFE49EFE2208
:1015A300BB010A89828A83E0F5F0A3E02250068713
:1015B300F009E71922BBFE07E3F5F009E3192289D5
:0B15C300828A83E493F5F07401932208
:1015CE00BB0110E58229F582E5833AF583E0F5F05B
:1015DE00A3E0225009E92582F886F008E622BBFE38
:1015EE000AE92582F8E2F5F008E222E5832AF5837E
:0815FE00E993F5F0A3E9932243
:10160600BB010A89828A83F0E5F0A3F0225006F72F
:0F16160009A7F01922BBFE06F3E5F009F319222C
:10162500F8BB0111E58229F582E5833AF583E8F0F7
:10163500E5F0A3F0225009E92582C8F608A6F022B4
:0D164500BBFE09E92582C8F2E5F008F2229B
:1016520075F008758200EF2FFFEE33FECD33CDCC4F
:1016620033CCC58233C5829BED9AEC99E5829840D2
:101672000CF582EE9BFEED9AFDEC99FC0FD5F0D6AF
:10168200E4CEFBE4CDFAE4CCF9A88222B800C1B9D9
:101692000059BA002DEC8BF084CFCECDFCE5F0CB17
:1016A200F97818EF2FFFEE33FEED33FDEC33FCEB50
:1016B20033FB10D703994004EB99FB0FD8E5E4F90B
:1016C200FA227818EF2FFFEE33FEED33FDEC33FCF8
:1016D200C933C910D7059BE99A4007EC9BFCE99AEC
:1016E200F90FD8E0E4C9FAE4CCFB2275F010EF2F31
:1016F200FFEE33FEED33FDCC33CCC833C810D70731
:101702009BEC9AE899400AED9BFDEC9AFCE899F86B
:0E1712000FD5F0DAE4CDFBE4CCFAE4C8F922FE
:102D4200C2D5E830E70FB2D5E4C39BFBE49AFAE4BC
:102D520099F9E498F8EC30E717B2D5122D781216EB
:102D62008EE4C39BFBE49AFAE499F9E498F88003B1
:102D720012168E30D50DE4C39FFFE49EFEE49DFD46
:042D8200E49CFC22AF
:0E172000C3E49FFFE49EFEE49DFDE49CFC22DA
:10172E00BB010789828A830217485005E9F8021A1D
:0A173E0058BBFE05E9F8021A642208
:0C174800ECF0A3EDF0A3EEF0A3EFF02214
:10175400A8828583F0D083D08212176B12176B1284
:10176400176B12176BE473E493A3C583C5F0C583A9
:10177400C8C582C8F0A3C583C5F0C583C8C582C8DF
:011784002242
:09178500E6FB08E6FA08E6F92289
:10178E00FAE6FB0808E6F925F0F618E6CA3AF6225C
:10179E00FAE6FB0808E625F0F9F618E63AFAF6221C
:1017AE00D083D082F8E4937012740193700DA3A3CA
:1017BE0093F8740193F5828883E4737402936860DE
:0617CE00EFA3A3A380DFDE
:1030C100EFB40A07740D1230CC740A309811A89924
:1030D100B8130CC2983098FDA899C298B811F6306F
:0730E10099FDC299F5992247
:10329C0010180B123325BF0D027F0A0230C1AF1F6D
:0132AC0022FF
:05001E008F1FD2182223
:10328900EFC394094005EF940E4003BF2003D38098
:0332990001C3224C
:1017D400E3F5F009E208B5F06D606B80F3E3F5F032
:1017E40009E608B5F060605E80F387F009E608B5A5
:1017F400F054605280F487F009E208B5F04860467E
:1018040080F488828C8387F009E0A3B5F0386036D1
:1018140080F488828C8387F009E493A3B5F0276071
:101824002580F388828C83E3F5F009E0A3B5F016F4
:10183400601480F388828C83E3F5F009E493A3B504
:10184400F004600280F20218FF808580E7808E80B9
:10185400D2803C8015806C807E809B80B5808B809C
:10186400A1804F8070803A02190B89828A83ECFA36
:10187400E493F5F0A3C8C582C8CCC583CCE493A394
:10188400C8C582C8CCC583CCB5F070606E80E189D0
:10189400828A83E493F5F0A3E208B5F05E605C808D
:1018A400F289828A83E0F5F0A3E608B5F04D604B37
:1018B40080F389828A83E0F5F0A3E208B5F03C6006
:1018C4003A80F389828A83E493F5F0A3E608B5F0BD
:1018D4002A602880F2805389828A83ECFAE493F5A3
:1018E400F0A3C8C582C8CCC583CCE0A3C8C582C850
:1018F400CCC583CCB5F004600280E27FFFB5F00272
:101904000F2240027F012289828A83ECFAE0F5F0FB
:10191400A3C8C582C8CCC583CCE0A3C8C582C8CC43
:10192400C583CCB5F0D560D380E389828A83ECFA91
:10193400E0F5F0A3C8C582C8CCC583CCE493A3C8A2
:10194400C582C8CCC583CCB5F0B160AF80E288F065
:10195400ED2402B4040050A3F582EB2402B4040085
:0B1964005099232345822390184D73F7
:10196F00E709F60870FA8046E709F20870FA803E38
:10197F0088828C83E709F0A370FA807EE309F6086A
:10198F0070FA8076E309F20870FA806E88828C8391
:10199F00E309F0A370FA806289828A83E0A3F608D4
:1019AF0070FA805689828A83E0A3F20870FA804A1F
:1019BF0080D280FA80C680D4806580F2803180101A
:1019CF0080A680EA809A80A880DA80E280CA80317F
:1019DF0089828A83ECFAE493A3C8C582C8CCC583F5
:1019EF00CCF0A3C8C582C8CCC583CC70E9800D8963
:1019FF00828A83E493A3F60870F9ECFAA9F0EDFB61
:101A0F002289828A83ECFAE0A3C8C582C8CCC58339
:101A1F00CCF0A3C8C582C8CCC583CC70EA80DD8961
:101A2F00828A83E493A3F20870F980CE88F0ED24C4
:101A3F0002B4040050C4F582EB2402B4040050BA7F
:091A4F0023234582239019BF7383
:0C1A5800ECF608EDF608EEF608EFF622BA
:0C1A6400ECF208EDF208EEF208EFF222BE
:0A3325003098FDAF99C2987E002297
:00000001FF
